:0A07A300C0F9A4B0999282F880908A
:0A079800040D01020408020800002D
:10048D001200061207BFC2B3C2B4C2B6C2B0D2B018
:10049D00C2B030B5FDD2B1858019C2B1AC19E4122C
:1004AD00033FE4FBFA79A07840120116E4FBFA79D8
:1004BD007F784312021FE4FBFA792078C0120025E1
:1004CD008F188E178D168C15752100752204120745
:1004DD00287B8B7AFD7985783E120116C004C00504
:1004ED00C006C007AF18AE17AD16AC157521007557
:1004FD0022051207287B607AE579F0783E12011605
:10050D00D003D002D001D000120025C004C005C018
:10051D0006C007AF18AE17AD16AC157521007522C4
:10052D00031207287B267AE47903783E120116A878
:10053D0004A905AA06AB07D007D006D005D0041232
:10054D000021C004C005C006C007AF18AE17AD1618
:10055D00AC157521007522021207287B8A7A8E79D7
:10056D0044783F120116D003D002D001D000120002
:10057D0025C004C005C006C0077F3D7E0A7D937C63
:10058D0041AB18AA17A916A815120116D003D0024F
:10059D00D001D0001200257BFA7A7E79C578411200
:1005AD0000258F148E138D128C11E4FFFE7D707C4F
:1005BD0042AB14AA13A912A8111202BC600E400C72
:1005CD00D2B6E5094508700DD2B48009E4F508F5F9
:1005DD0009C2B6C2B4E4FFFEFDFCAB14AA13A91206
:1005ED00A8111202BC600A4008E4FFFEFD7C3F80AA
:1005FD0006E4FFFEFD7CBFAB14AA13A912A81112CD
:10060D0000251203738E0A8F0BC3E50A6480948054
:10061D004005750CC0800E750CBFC3E4950BF50B32
:0F062D00E4950AF50AAF0BAE0A1206C80204994B
:10000600758910758DFF758B38D2AFD2ABD28E2223
:0707BF00C288D2AFD2A822CC
:1006C800AB07AA067C007D0A1203F48D1A7C007D14
:1006D8000AAF03AE021203F47C007D0A1203F48D04
:1006E8001BAE02AF037C007D641203F47C007D0A1C
:1006F8001203F48D1C850DA0850C90120775850ECC
:10070800A0E51C12076F850FA0E51B12076F851067
:10071800A0E51A9007A393F5907F057E000207795C
:080728008F208E1F8D1E8C1D19
:10073000E4F526F52575248075233FE522452160E3
:1007400025AF26AE25AD24AC23AB20AA1FA91EA839
:100750001D1201168F268E258D248C23E52215224D
:0E07600070D9152180D5AF26AE25AD24AC236F
:01076E002268
:0A076F009007A393F5907F057E002C
:10077900D3EF9400EE94004015E4FDFC0DBD00019B
:0E0789000CED647D4C70F5EF1F70E51E80E2F4
:01079700223F
:03001B000207AD2C
:0907AD00758DFF758B38B2B33273
:030003000207B63B
:0907B600C2B47508007509013296
:10001E000203DFE86480F8E933E83360110460F02E
:10002E00ED33EC337009E8FCE9FDEAFEEBFF220448
:10003E0060DED3EB9FEA9EE99DE8C2E78CF0C2F743
:10004E0095F0400CE8CCF8E9CDF9EACEFAEBCFFB0F
:10005E001203AA85D0F05804700320D5B3E80470BB
:10006E00075002B2D50203E992D5EC0460F7E4CC56
:10007E00C0E0C398F8603B94186008400DD0E0FBD8
:10008E000203C1E4FBFAC9FC8028E830E406E4C9A7
:10009E00FBE4CAFCE830E305E4C9CACBFCE854072C
:1000AE006010F8C3E913F9EA13FAEB13FBEC13FC37
:1000BE00D8F130F52FC3E49CFCEF9BFFEE9AFEEDDA
:1000CE0099FDD0E0FBEF4E4D4C701222DB03020384
:1000DE00E6EC2CFCEF33FFEE33FEED33FDED30E7B7
:1000EE00EB0203C1EF2BFFEE3AFEED39FDD0E0FB44
:1000FE0050130BBB00030203E9ED13FDEE13FEEFED
:08010E0013FFEC13FC0203C116
:10011600EC4D6011E8497017ED33EC3304600DE4E3
:10012600FCFFFEFD22E933E8330470F80203DF1218
:1001360003AA58046009E4CC248150062850090219
:1001460003E92840030203E6C0E0EB4A7044B980A5
:1001560006D0E0FB0203D5EF4E701CBD8008EBFF16
:10016600EAFEE9FD80EBE98DF0A4FEE5F00201FF71
:10017600E9CDF9EAFEEBFFEF89F0A4FCE5F0CE89C4
:10018600F0A42EFFE435F0CD89F0A42DFEE435F081
:100196008067EF4E7005BD80D780C3EF8BF0A4ACAF
:1001A600F0EE8BF0A42CFCE435F0F8EF8AF0A42CEA
:1001B600E5F038FCE433CB8DF0A42CFCE5F03BF8FD
:1001C600EE8AF0A42CFCE5F038F8E433CF89F0A4ED
:1001D6002CFCE5F038CF3400CE89F0A42FFFE5F0F3
:1001E6003EFEE433C98DF0A42EFEE5F039CD8AF04B
:1001F600A42FFFE5F03EFEE43DFD33D0E0FB5007C3
:100206000BBB000F0203E9EC2CFCEF33FFEE33FED1
:06021600ED33FD0203C1FF
:10021C000203E9EC5D046005E8590470030203DF96
:10022C001203AA580460F6EC4860F2EC7004FDFE70
:10023C00FF22C860DB2481C85009C39860025006B5
:10024C000203E69850CAF582E9294B4A7005AB8245
:10025C000203D575F0007C1A7880C3EF9BEE9AED03
:10026C0099400DC3EF9BFFEE9AFEED99FDE842F02D
:10027C00DC23ACF0D0E0FFD0E0FED0E0FDAB822080
:10028C00E7101BEB60BAEC2CFCEF33FFEE33FEED0A
:10029C0033FD0203C1E803F830E705C0F075F00048
:1002AC00EF2FFFEE33FEED33FD40B830E7C280AAEE
:1002BC0074F8CC6480CCC86480C8F58204604FC3E9
:1002CC00EB9FF5F0EA9E42F0E99D42F0E89C45F088
:1002DC00603C501DE5825FFFE582D313CB5BCBF412
:1002EC002B5582FB50280ABA002409B9002008803B
:1002FC001DE5825BFBE582D313CF5FCFF4C3132FD5
:10030C005582FF50090EBE00050DBD00010CC3EB5C
:10031C009FF5F0EA9E42F0E99D42F0E89C45F060C2
:09032C0007CC4820E701B3EC22E4
:1003350075F020800E75F010800575F0087D007E43
:10034500007F003392D530D50312042AEC334010D8
:10035500EF33FFEE33FEED33FDEC33FCD5F0ED224C
:0E036500E5F0247EA2D513CC92E7CDCEFF2288
:10037300EDD2E7CD33EC3392D524814006E4FFFE82
:10038300FDFC22FCE4CFCECDCC24E0501174FF80E1
:10039300EDC3CC13CCCD13CDCE13CECF13CF04707E
:0703A300F030D5DE02042A50
:1003AA00E9D2E7C933E833F892D5EDD2E7CD33EC99
:0703BA0033FC5002B2D52212
:1003C100EC30E7100FBF000C0EBE00080DBD00049D
:1003D1000BEB6014A2D5EB13FCED92E7FD2274FF49
:1003E100FCFDFEFF22E480F8A2D574FF13FC7D80A2
:0303F100E480EFB6
:0300000002063CB9
:0C063C00787FE4F6D8FD75812602068365
:1003F400C2D5EC30E709B2D5E4C39DFDE49CFCEE24
:1004040030E715B2D5E4C39FFFE49EFE120438C35F
:10041400E49DFDE49CFC800312043830D507C3E45A
:060424009FFFE49EFE2292
:0E042A00C3E49FFFE49EFEE49DFDE49CFC22E3
:1006480002048DE493A3F8E493A34003F68001F237
:1006580008DFF48029E493A3F85407240CC8C333B3
:10066800C4540F4420C8834004F456800146F6DF82
:10067800E4800B0102040810204080900798E47E73
:10068800019360BCA3FF543F30E509541FFEE49377
:10069800A360010ECF54C025E060A840B8E493A33E
:1006A800FAE493A3F8E493A3C8C582C8CAC583CA69
:1006B800F0A3C8C582C8CAC583CADFE9DEE780BE21
:0107A2000056
:10043800BC000BBE0029EF8DF084FFADF022E4CCA8
:10044800F875F008EF2FFFEE33FEEC33FCEE9DEC71
:10045800984005FCEE9DFE0FD5F0E9E4CEFD22EDB7
:10046800F8F5F0EE8420D21CFEADF075F008EF2F01
:10047800FFED33FD4007985006D5F0F222C398FDF2
:050488000FD5F0EA228F
:00000001FF
